:020000040800F2
:1000000048070020550200083D1B0008E9190008B8
:10001000391B00084D040008751E00080000000090
:10002000000000000000000000000000691C000843
:100030005104000800000000411B00086D1C00086E
:100040006F0200086F0200086F0200086F020008CC
:100050006F0200086F0200086F0200086F020008BC
:100060006F0200086F0200086F0200086F020008AC
:100070006F0200086F0200086F0200086F0200089C
:100080006F0200086F0200086F0200086F0200088C
:100090006F0200086F0200086F0200086F0200087C
:1000A0006F0200086F0200086F0200086F0200086C
:1000B0006F0200086F0200086F0200086F0200085C
:1000C0006F0200086F0200086F0200086F0200084C
:1000D0006F0200086F0200086F0200086F0200083C
:1000E0006F0200086F0200086F0200086F0200082C
:1000F0006F0200086F0200086F0200086F0200081C
:100100006F0200086F0200086F0200086F0200080B
:100110006F0200086F0200082D1D00086F02000822
:100120006F0200086F0200086F0200086F020008EB
:100130006F0200086F0200086F0200086F020008DB
:100140006F0200086F0200086F0200086F020008CB
:100150006F0200086F0200086F0200086F020008BB
:100160006F0200086F0200086F0200086F020008AB
:100170006F0200086F0200086F0200080000000014
:100180006F0200086F02000800F002F800F052F859
:1001900014A696E8000CB244B344DA4501D100F04D
:1001A00049F8BAE80F000FA696E83000A5EB040561
:1001B00004EB0607AAEB0704A7F101074FEA1515A0
:1001C0004FEA3414A4F10104AC4201D300F032F838
:1001D00013F0010F18BFFB1A43F0010300F001F800
:1001E000DBE71847B4200000D4200000103A24BFF9
:1001F00078C878C1FAD8520724BF30C830C144BF8C
:1002000004680C6070470000704700000023002461
:1002100000250026103A28BF78C1FBD8520728BF16
:1002200030C148BF0B6070471FB502F00FF81FBD0B
:1002300010B510BD00F0D0F81146FFF7F5FF01F042
:10024000C7FE00F0EEF803B4FFF7F2FF03BC00F0C6
:10025000F5F800000948804709480047FEE7FEE737
:10026000FEE7FEE7FEE7FEE7FEE7FEE7FEE7FEE766
:1002700004480549054A064B70470000191D00084F
:100280008901000848010020480700204803002099
:100290004803002053EA020C00F069802DE9F04B7E
:1002A0004FF00006002B1FBFB3FA83F503FA05F4E5
:1002B00024FA05F65E4012BF1643B2FA82F502FA3E
:1002C00005F4C5F120051EBF22FA05FC44EA0C0422
:1002D000203556EA044C4FEA144418BF641C4FF012
:1002E00000084FF00009904271EB030C39D300294C
:1002F00019BFB1FA81F701FA07F6B0FA80F700FAF0
:1003000007F6C7F120071EBF20FA07FC46EA0C06D5
:100310002037B6FBF4FCA7EB0507103F07F01F0BD7
:10032000CBF120062CFA06F60CFA0BFB44BFB346C1
:100330000026202FA4BF5E464FF0000B5BEA060CA0
:1003400008BF4FF0010B19EB0B0948EB0608ABFB9C
:10035000027C06FB02CC0BFB03CCC01B71EB0C0137
:10036000C1E70B46024641464846BDE8F08B13B54F
:10037000084318BF4FF0FF300146AFF30080BDE8DF
:100380001C4070474FF0000200B513469446964655
:10039000203922BFA0E80C50A0E80C50B1F1200198
:1003A000BFF4F7AF090728BFA0E80C5048BF0CC046
:1003B0005DF804EB890028BF40F8042B08BF7047A4
:1003C00048BF20F8022B11F0804F18BF00F8012B16
:1003D0007047704770477047754600F02BF8AE467F
:1003E00005006946534620F00700854618B020B541
:1003F000FFF73EFFBDE820404FF000064FF000073A
:100400004FF000084FF0000BAC46ACE8C009ACE878
:10041000C009ACE8C009ACE8C00921F007018D466D
:10042000704710B50446AFF300802046BDE8104089
:10043000FFF709BF0048704710000020014918204D
:10044000ABBEFEE72600020070470000FEE700009A
:100450007047000072B600BFFEE70000B0B504466A
:1004600000F0E6F8054640F20000C2F20000007815
:10047000611C18BF044400BF00F0DAF8401BA04222
:10048000FAD3B0BD2DE9F04F83B000F1200200F1A6
:100490003E4741F60045009207F1FF77C4F202059E
:1004A00008224FEAB726A84208BF072200254FF0CE
:1004B00000084FF00009072E38BF4FEAB72201921B
:1004C0000AE000BF09F1010908F10208B9F1100FB3
:1004D00005F1040500F0A2800F68012202FA09FE6E
:1004E00017EA0E0AEED0D1F804C003220CF003077D
:1004F0007E1E02FA08F4012E6FEA040B12D88468FB
:10050000CE6804EA0B0406FA08F6344384604468B3
:1005100024EA0E06CCF3001404FA09F426434660DC
:1005200004E000BF032F01D103271EE0C6688C68DA
:1005300006EA0B0604FA08F42643022FC66014D11B
:100540006FF00302009E02EA590756F807C005F053
:100550001C040F220B69A2402CEA0202A3401A439A
:10056000F251D1F804C00CF00307026807FA08F34F
:1005700002EA0B021A431CF4403F0260A2D00022A0
:1005800043F644030292C4F202031A6843F600449D
:1005900042F480421A601A68C4F2010402F48042F4
:1005A0000292029A29F003024FF6084C2244CFF639
:1005B000FF7C52F80C3005F00C070F26BE40B34309
:1005C000019E06FA07F73B4342F80C30A2684B68DD
:1005D00042EA0A0743F60C4CDE0258BF22EA0A0739
:1005E000A760C4F2010CDCF800209E0242EA0A0770
:1005F00058BF22EA0A07CCF8007062689E0342EAFC
:100600000A0758BF22EA0A0767602268DB0342EA4A
:100610000A0758BF22EA0A07276053E703B0BDE87C
:10062000F08F0000002A08BF0904816170470000B4
:1006300040F24010C2F200000068704740F2000033
:1006400040F24011C2F20000C2F2000100780A68D4
:10065000104408607047000080B543F60040C4F2C3
:100660000200016841F400710160016841F4806199
:100670000160016841F480710160032000F086F898
:100680000F2000F005F800F027F8002080BD0000E2
:1006900070B540F20006C2F2000640F2080132785E
:1006A000C2F200014FF47A730968B3FBF2F2044618
:1006B000B1FBF2F1084600F0C5FF0F2C4FF0010529
:1006C00008D838B94FF0FF3021460022002500F04D
:1006D00031F87460284670BD82B0002043F64001B6
:1006E0000190C4F202014A6842F480424A604A68BA
:1006F00002F480420192019A0090086840F0805014
:100700000860086800F080500090009802B07047C0
:10071000002848BF704700F01F01012202FA01F1D2
:100720001C2202EAD0004EF20012CEF200028150EA
:100730007047000010B54EF60C5CCEF2000CDCF8F1
:100740000030C3F3022E8EF00704042C28BF0424CB
:10075000BEF103034FF0FF3E0EFA04F438BF00234E
:10076000A14399400EFA03F39A43114300F00F029C
:1007700000F160430901043A03F564436244002830
:1007800048BF02F10C03197010BD00004EF60C5169
:10079000CEF200010A684FF6FF031A4060F30A2206
:1007A00042F0806040F0FD7008607047002804BF90
:1007B000012070472DE9F04143F60808C4F2020811
:1007C0000446D8F8F8030D4600F00700814207D927
:1007D00088F8F853D8F8F80300F00700A84277D15A
:1007E0002068810717D5410705D5D8F8001041F4D6
:1007F000E051C8F80010010705D5D8F8001041F401
:100800006041C8F80010D8F80010A26821F0F0018B
:100810001143C8F80010C00740D1D8F8F80300F021
:100820000700854207D288F8F853D8F8F80300F09B
:100830000700A8424CD12068410707D5D8F800101E
:10084000E26821F4E0511143C8F80010000708D510
:10085000D8F80000216920F4604040EAC100C8F8DF
:10086000000000F055F8D8F8001042F26622C1F3FB
:100870000311C0F60002515C40F2080220FA01F1B7
:1008800040F20400C2F200000068C2F200021160EF
:10089000FFF7FEFE0020BDE8F08100BF6068811E0A
:1008A000022907D258F8081C89015CBF0120BDE865
:1008B000F08111E0012807D158F8081C89035CBFBA
:1008C0000120BDE8F08107E058F8081C890703D42F
:1008D0000120BDE8F08100BFD8F8001021F003012D
:1008E0000843C8F80000FFF7A3FE064641F2883728
:1008F000D8F80000616800F00C00B0EB810F8CD0DC
:10090000FFF796FE801BB842F2D90320BDE8F081C4
:1009100010B543F60404C4F202046168C1F3810116
:1009200042F20040C0F2F400DFE801F002040A02E3
:1009300010BD00BF41F60030C0F2B70010BD00BFCF
:10094000206821682368490241F60031C0F2B701EE
:1009500000F03F02C3F388105CBF42F20041C0F2D6
:10096000F401A1FB00010023FFF794FC216802229F
:10097000C1F3014102EB4101B0FBF1F010BD0000F9
:10098000002804BF012070472DE9F04182B00446E1
:10099000007843F60006C007C4F202060CD0B06827
:1009A00000F00C00042840F081803068800303D5FB
:1009B0006068002800F06881207880071BD5B06847
:1009C00010F00C0F09D0B06800F00C00082840F0BF
:1009D00087807068400200F183803068800703D50B
:1009E000E068012840F050813068216920F0F8006B
:1009F00040EAC10030602078000713D42078400717
:100A00002AD4A569002D00F03A81B06800F00C00EE
:100A1000082840F0A580012D40F00E81012002B091
:100A2000BDE8F0816069002800F082800020C4F2F7
:100A300047200121C0F8801EFFF7FAFD054600BFE0
:100A4000706F8007DAD4FFF7F3FD401B0228F7D957
:100A5000032002B0BDE8F081306C5FEAC0080AD420
:100A600000200190306C40F080503064306C00F019
:100A700080500190019847F20007C4F200073868DF
:100A8000C00547D4386840F480703860FFF7D0FD67
:100A9000054600BF3868C0053CD4FFF7C9FD401BC0
:100AA0000228F7D9032002B0BDE8F081B06800F059
:100AB0000C00082803D1706840023FF576AF6168EA
:100AC0003068B1F5803F07D0B1F5A02F40F09A8093
:100AD00040F480203060306840F4803030609AE02C
:100AE000E068002840F20000C4F247205CD00121F9
:100AF0000160FFF79DFD0546306880073FF574AF44
:100B0000FFF796FD401B0228F6D9032002B0BDE88E
:100B1000F08100BFA168306F012905D0052955D1AA
:100B200040F004003067306F40F00100306756E05D
:100B30000020C4F247200021C0F8801EFFF778FD96
:100B4000054600BF706F80077FF558AFFFF770FD57
:100B5000401B0228F6D9032002B0BDE8F08100BF97
:100B60000027C4F2472700203866FFF761FD022DF9
:100B700005460DD13068800140F18A80FFF758FDAD
:100B8000401B02284FF00300F4D902B0BDE8F08109
:100B90003068800173D5FFF74BFD401B02284FF0F2
:100BA0000300F5D9F1E700BF00210160FFF740FD28
:100BB000054600BF306880077FF51DAFFFF738FDA1
:100BC000401B02284FF00300F4D9DEE720F00100BB
:100BD0003067306F002920F0040030677AD0FFF7CB
:100BE00027FD054641F28837306F800700F1848089
:100BF000FFF71EFD401BB842F6D9032002B0BDE846
:100C0000F08100BF20F4803030603068002920F48B
:100C1000802030607AD0FFF70BFD054630688003F6
:100C20003FF5CAAEFFF704FD401B6428F6D9032048
:100C300002B0BDE8F08100BF7068E16900F4800295
:100C40008A4221D1216A00F03F028A421CD147F634
:100C5000C071626A0140B1EB821F15D1A16A4FF6E3
:100C6000FF73C903994300F44032A1F580318A42F1
:100C70000AD1E16A00F07060B0EB016F04D100208E
:100C800002B0BDE8F08100BF012002B0BDE8F081F4
:100C900004F11C052FCD084340EA8210D9034FF61A
:100CA000FF729143A1F5803140EA0560084370600E
:100CB00001203866FFF7BCFC044600BF30688001A5
:100CC000DDD4FFF7B5FC001B02284FF00300F5D977
:100CD0005BE700BFFFF7ACFC054641F2883700BF79
:100CE000306F800708D5FFF7A3FC401BB8424FF0D8
:100CF0000300F5D949E700BFB8F1000F3FF581AE19
:100D0000306C20F0805030647BE600BFFFF790FC31
:100D1000054600BF306880037FF54EAEFFF788FCC4
:100D2000401B64284FF00300F4D92EE790F85100DF
:100D30007047000070B528B1416A29B100210161F6
:100D4000142106E0012070BD4168B1F5827F02D018
:100D50001C21002242500026866290F8511029B9C9
:100D600080F85060054600F03DF82846022180F8E2
:100D7000511090E82E0002F482720C6803F40443D0
:100D800024F040040C601A4405F4006305691A4419
:100D900005F0020345691A4405F001038569C46939
:100DA0001A4405F400731A4404F03803046A1A4420
:100DB00004F08003846A1A4304F400531A430A605F
:100DC000436A042202EA154203F010031A444A60FF
:100DD000CA6922F40062CA610121466580F8511097
:100DE000304670BD2DE9F04387B043F2000500683E
:100DF000C4F201050026A8420696CDE904660396D2
:100E0000029603D007B0BDE8F08300BF43F6300080
:100E10000196C4F20200416902AC41F48051416183
:100E200041694FF0020801F4805101910199019646
:100E300001684FF0030941F00201016001680527D4
:100E400001F00201019101990196016841F001014F
:100E500001600068214600F001000190019818200F
:100E6000029005F55440CDE90386CDF8149006971D
:100E7000FFF708FB8020CDE9020805F55040214628
:100E8000CDE904690697FFF7FDFA07B0BDE8F083E6
:100E90002DE9F04182B0044690F8510001281AD1A2
:100EA00000294FF0010018BF002A03D102B0BDE8AD
:100EB000F08100BF60681D461746B0F5827F03D100
:100EC000A068002800F0BC800E46FFF7B1FB94F844
:100ED0005010012904D1022002B0BDE8F08100BF0A
:100EE0008046012084F850000420002184F851003D
:100EF0006165A663A787E7872163A186E186A2686B
:100F00002068B2F5004F2164616437D0016849065A
:100F10003FD5E168E08F002943D000287AD0681CD3
:100F20000BD11AE0C068A16B21F8020BA163E08F1E
:100F30000138E087E08F00286CD020688168C907FD
:100F4000F0D1FFF775FBA0EB0800A842F2D342E016
:100F5000FFF76EFBE08F00285CD020688168C9072E
:100F6000F6D0C068A16B21F8020BA163E08F0138B5
:100F7000E087E08F0028F0D14CE000BF016821F04D
:100F800040010160016821F4804101600168490667
:100F9000BFD4016841F040010160E168E08F0029A1
:100FA000BBD1B8B3681C0CD124E000BF007BA16B9F
:100FB0000870A06B0130A063E08F0138E087E08FFC
:100FC00040B320688168C907F0D1FFF731FBA0EB7F
:100FD0000800A842F3D3012084F85100002084F8CF
:100FE0005000032002B0BDE8F08100BFFFF720FBF6
:100FF000E08F78B120688168C907F7D0007BA16BCA
:101000000870A06B0130A063E08F0138E087E08FAB
:101010000028EFD16068B0F5827F0ED1A068B0F5EE
:10102000004F02D0B0F5806F16D12168B0F5806F07
:101030000A6822F040020A600ED1204601210DE02C
:10104000042084F8510020460A463B46009500F0F3
:1010500059F902B0BDE8F0812046802100222B46DC
:10106000CDF8008000F06EFD28B1606D40F02000EA
:10107000606520206065012084F85100002084F81C
:101080005000606D002818BF012002B0BDE8F0815B
:101090002DE9F04184B01D4616460F460446FFF781
:1010A000C7FA94F8511001290ED18046002F4FF055
:1010B000010018BF002E03D104B0BDE8F08100BFCD
:1010C00094F85000012803D1022004B0BDE8F0815B
:1010D000012084F850000320002184F8510061654C
:1010E0002763A686E686A163A187E187A0682164BD
:1010F000B0F5004F2068616407D1016821F040011C
:101100000160016841F4804101600168490603D42F
:10111000016841F0400101606168731EE268B1FA44
:1011200081F1B3FA83F349095B09B2F5006F41EA33
:10113000030139D131B137F8021BC1602763E08E5A
:101140000138E086E08E002870D0681C0BD11AE0D0
:10115000216B31F8022BC2602163E08E0138E086FA
:10116000E08E002862D0206881688907F0D4FFF7FC
:101170005FFAA0EB0800A842F2D338E0FFF758FA74
:10118000E08E002852D0206881688907F6D5216B4F
:1011900031F8022BC2602163E08E0138E086E08ED8
:1011A0000028F0D142E000BF39B139780173206BDB
:1011B00001302063E08E0138E086E08EB0B3681C19
:1011C0000BD123E0216B09780173206B0130206380
:1011D000E08E0138E086E08E40B3206881688907A0
:1011E000F0D4FFF725FAA0EB0800A842F3D30120C2
:1011F00084F85100002084F85000032004B0BDE8BA
:10120000F08100BFFFF714FAE08E78B120688168A2
:101210008907F7D5216B09780173206B01302063B2
:10122000E08E0138E086E08E0028EFD120460221D2
:1012300001222B46CDF8008000F084FCE0B1606D07
:1012400040F02000606520206065A06838B900206B
:1012500002902068C1680291806802900298012083
:1012600084F85100002084F85000606D002818BFF9
:10127000012004B0BDE8F08140F20800C2F2000095
:10128000006849F68171C1F25E61A0FB0101480D61
:101290004FF47A71484303906068B0F5827F0BD1B8
:1012A0002046802100222B46CDF8008000F04AFC29
:1012B0000028C4D1C9E700BF03980028C5D003980F
:1012C00001380390206881680906BED5039900297A
:1012D000BBD003990139039181680906B5D50399FB
:1012E0000029B2D003990139039181680906ACD570
:1012F00003990029A9D00399013903918068000658
:10130000DAD4A2E72DE9F04383B01E4615460F4616
:101310000446FFF78DF994F851108146012909D14F
:10132000002F4FF0010018BF002D0FD103B0BDE812
:10133000F08300BF6068B0F5827F0DD104294FF0C3
:101340000200F3D1A1680029EAD0EFE7002EEDD02A
:1013500094F85000012803D1022003B0BDE8F083C7
:10136000012084F8500094F85100002104281CBF8B
:10137000052084F851006165A563E687A687276389
:10138000E6862068A686216461640168490603D464
:10139000016841F0400101606168731EE268B1FAC2
:1013A00081F1B3FA83F3DDF8288049095B09B2F5CE
:1013B000006F41EA030165D131B137F8021BC1600A
:1013C0002763E08E0138E086012518F1010032D153
:1013D00002E000BFFFF72CF9E08E18B9E08F00287B
:1013E00000F0B8802068816889070CD5E18E51B182
:1013F000012D08D1216B002531F8022BC260216339
:10140000E18E0139E1868168C907E3D0E18F0029C7
:10141000E0D0C068A16B012521F8020BA163E08F29
:101420000138E087D6E700BFFFF702F9A0EB09001B
:10143000404580F0A580E08E18B9E08F002800F0CC
:1014400089802068816889070CD5E18E51B1012D12
:1014500008D1216B002531F8022BC2602163E18E97
:101460000139E1868168C907DED0E18F0029DBD030
:10147000C068A16B012521F8020BA163E08F013840
:10148000E087D1E739B139780173206B01302063EF
:10149000E08E0138E086012518F1010032D101E02B
:1014A000FFF7C6F8E08E10B9E08F002852D0206810
:1014B000816889070ED5E18E61B1012D0AD1216BBA
:1014C000002509780173216B206801312163E18EC9
:1014D0000139E1868168C907E2D0E18F0029DFD0B8
:1014E000C068A16B01250870A06B0130A063E08F7C
:1014F0000138E087D4E700BFFFF79AF8A0EB0900B6
:1015000040453DD2E08E08B9E08F18B3206881686D
:1015100089070ED5E18E61B1012D0AD1216B00251D
:1015200009780173216B206801312163E18E013953
:10153000E1868168C907DFD0E18F0029DCD0C0686F
:10154000A16B01250870A06B0130A063E08F01380A
:10155000E087D1E72046022101224346CDF80090E2
:1015600000F0F0FAB0B1606D40F02000606520201E
:101570006065002084F85000012003B0BDE8F083CE
:10158000012084F85100002084F85000032003B0AB
:10159000BDE8F08340F20800C2F20000006849F69E
:1015A0008171C1F25E61A0FB0101480D4FF47A71B7
:1015B000484302906068B0F5827F0BD120468021BD
:1015C00000224346CDF8009000F0BCFA0028CAD1B2
:1015D00021E000BF0298F0B1029801380290206823
:1015E0008168090617D50299A9B1029901390291BA
:1015F000816809060FD5029969B1029901390291F2
:101600008168090607D5029929B102990139029129
:1016100080680006DED4A06838B9002001902068F8
:10162000C1680191806801900198012084F85100FF
:10163000002084F85000606D002818BF012003B01E
:10164000BDE8F083411E0020B0EB116F1CBF0120EC
:1016500070474EF21002CEF2000251604EF6235156
:10166000CEF20001F0230B700721906011607047EB
:10167000704700007047000090F83C20012A4FF0AE
:10168000020254D010B580F83D200268D2F804E080
:10169000D2F808C00C682EF07003234341F2FF74A7
:1016A000C4F20004A24253600EDC40F2FF73C4F2A5
:1016B00000039A4216DCB2F1804F2BD040F2004377
:1016C000C4F2000324E000BF40F2FF33C4F2010380
:1016D0009A4213DC41F60003C4F200039A4219D087
:1016E000002313E040F60003C4F200039A4211D035
:1016F00040F60043C4F200030AE000BF44F20003D6
:10170000C4F201039A4205D040F20043C4F201033F
:101710009A4204D149682CF0800319439160012159
:10172000002280F83D1080F83C20BDE810401046B3
:1017300070470000002804BF0120704710B5044620
:1017400090F83D0028B9002084F83C00204600F0C5
:101750001FF8022084F83D002068211D00F0ECFAFB
:10176000012084F8460084F83E0084F83F0084F8A5
:10177000400084F8410084F8420084F8430084F873
:10178000440084F8450084F83D00002010BD0000AE
:10179000006841F20001C4F20001884218BF70479E
:1017A00080B582B00020019043F64000C4F20200F0
:1017B0000168002241F0100101600068002100F082
:1017C0001000019001983620FEF7B4FF362002B0D9
:1017D000BDE88040FEF79CBF90F83D1001291CBF7A
:1017E00001207047022180F83D10006841F2FF722D
:1017F000C168C4F20002904241F00101C1600DDCF9
:1018000040F2FF71C4F20001884215DCB0F1804F54
:101810002AD040F20041C4F2000123E040F2FF313F
:10182000C4F20101884213DC41F60001C4F2000158
:10183000884219D0002113E040F60001C4F20001F3
:10184000884211D040F60041C4F200010AE000BF16
:1018500044F20001C4F20101884205D040F2004187
:10186000C4F20101884206D1816801F0070106290E
:1018700004BF00207047016841F0010101600020B1
:10188000704700007047000070B504460068C568E6
:101890000669B10716D515F0020113D06FF00201E9
:1018A0000161012121778069800703D02046FFF77D
:1018B000E9FF05E0204600F08FF8204600F08EF8A2
:1018C00000202077700719D515F0040016D0206885
:1018D0006FF00401016102212177806910F4407FDB
:1018E00004D02046FFF7CEFF06E000BF204600F000
:1018F00073F8204600F072F800202077300717D5E3
:1019000015F0080014D020686FF00801016104216F
:101910002177C069800703D02046FFF7B3FF05E0B9
:10192000204600F059F8204600F058F800202077B3
:10193000F00619D515F0100016D020686FF01001D0
:10194000016108212177C06910F4407F04D020464E
:10195000FFF798FF06E000BF204600F03DF8204664
:1019600000F03CF800202077F00718BF15F00100C8
:1019700002D1300609D412E020686FF00101016144
:10198000204600F02DF8300609D515F0800006D06D
:1019900020686FF0800101612046FFF769FE700644
:1019A00009D515F0400006D020686FF040010161B4
:1019B000204600F017F8B00658BF70BD15F02000A3
:1019C00008D021686FF0200220460A61BDE870400F
:1019D000FFF750BE70BD0000704700007047000068
:1019E0007047000070470000FEE700002DE9F0415D
:1019F00086B0002043F630010590CDE90300CDE923
:101A000001000090C4F202010A68002442F00202C0
:101A10000A600A68C4F2020402F002020092009A0C
:101A200000900A68102642F001020A600A68012745
:101A300002F001020092009A00900868012240F032
:101A4000800008600868102100F080000090009875
:101A50002046FEF7E7FD04F58065284601210122B6
:101A6000FEF7E0FDCDE9016701AE4FF00208204628
:101A700031460397CDF81080FEF704FD2846314625
:101A8000CDE90177CDE90378FEF7FCFC06B0BDE8AF
:101A9000F0810000B0B540F2A00043F20001C2F2B4
:101AA0000000C4F201014FF48272002380E80E00AE
:101AB00000F10C014FF0020C4FF0010E4FF40074D6
:101AC000382581E808500A21C0E90645C0E90833F5
:101AD000C0E90A31FFF72EF9002808BFB0BDBDE804
:101AE000B040FEF7B7BC000080B582B040F2F8000D
:101AF00041F200020021C2F20000C4F20002B3234E
:101B000040F2E73CCDE90011C0E90023C0E9021C26
:101B10008161FFF70FFE002818BFFEF79BFC40F223
:101B2000F800C2F200006946FFF7A6FD002818BFC2
:101B3000FEF790FC02B080BDFEE70000FEE700006B
:101B4000704700002DE9F04381B0089C9846154687
:101B50000E468146FEF76CFD201A00EB0804FEF7E6
:101B600067FD40F20801C2F200010968C1F3CB3100
:101B700061430091D9F800108A683240921BB2FA92
:101B800082F25209954203D1002001B0BDE8F083F2
:101B9000074618F101000ED130E000BF009801386F
:101BA0000090D9F8000080683040801BB0FA80F0C7
:101BB00040098542E8D0FEF73BFDC01BA04227D27A
:101BC00000980028EAD10024EBE700BF8868304085
:101BD000801BB0FA80F040098542D5D0886830403B
:101BE000801BB0FA80F040098542CDD08868304033
:101BF000801BB0FA80F040098542C5D0886830402B
:101C0000801BB0FA80F040098542DFD1BCE700BFFD
:101C1000D9E900014268B1F5827F22F0E00242601A
:101C20000BD1D9F80810B1F5004F02D0B1F5806F93
:101C300003D1016821F040010160D9F82810B1F505
:101C4000005F07D1016821F400510160016841F48F
:101C500000510160012089F85100002089F85000EE
:101C6000032001B0BDE8F08370470000FEF7E6BC3A
:101C700070B592B006AC20463021FEF783FB0025FC
:101C800043F640000595CDE90355CDE90155009592
:101C9000C4F202000168022641F080510160006830
:101CA00000F080500090009847F200000095C4F2C8
:101CB0000000016841F480410160006800F4804048
:101CC000009000980120099010200A9008200E90A2
:101CD000A820CDE90F060420119020460696CDE9F4
:101CE0000C65FEF74DFE18B172B600BFFEE700BFEF
:101CF0000F20CDE901064FF4A05004904FF480501E
:101D0000059001A805210395FEF750FD10B172B6AC
:101D1000FEE700BF12B070BD4EF68850CEF2000054
:101D2000016841F4700101607047000040F2F80062
:101D3000C2F20000FFF7A8BDB0B540F6FF3E05684F
:101D4000C4F2000E40F2004C7045C4F2010C25DCD8
:101D5000B0F1804F2FD040F20043C4F2000398420C
:101D600029D040F60003C4F20003984223D041F684
:101D7000FF73C4F20003984228DC70453ADCB0F1EE
:101D8000804F5BD040F20043C4F20003984255D02C
:101D900040F60003C4F200034EE000BF40F60043EB
:101DA000C4F20003984206D0604504D00023C4F278
:101DB00001039842DBD14B6825F0700243EA02052B
:101DC00041F6FF73C4F200039842D6DD43F6FF7379
:101DD000C4F2010398421FDC42F20003C4F2000384
:101DE00098422BD00023C4F20103984226D06045CC
:101DF00024D028E040F60043C4F2000398421DD0EE
:101E000041F60003C4F20003984217D041F60043A4
:101E1000C4F2000310E000BF44F20003C4F2010367
:101E200098420BD044F60003C4F20103984205D057
:101E300044F20043C4F20103984204D1CB6825F474
:101E4000407243EA02050A688C684B69C46240F438
:101E500080648262644504BF09690163026825F0F9
:101E6000800142F0040219430260012242610160D4
:101E7000B0BD0000FEE7000070B582B00024C4F2DF
:101E80000204204610210022FEF7CCFB40F2A00500
:101E90007E20C2F200058DF802000DF102012846F5
:101EA00001224FF47A73FFF7F3F800BF2846FEF7DC
:101EB0003DFF0328FAD040F2A005B620C2F200058B
:101EC0008DF803000DF10301284601224FF47A73C7
:101ED000FFF7DEF82846FEF729FF0328FAD0012095
:101EE000FEF7BCFA204610210122FEF79BFB04F509
:101EF0008065284601210022FEF794FB40F2A006EF
:101F00001420C2F200068DF8040001A93046012217
:101F10004FF47A73FFF7BCF83046FEF707FF03284B
:101F2000FAD040F2A006B620C2F200068DF80500F5
:101F30000DF10501304601224FF47A73FFF7A8F83E
:101F40003046FEF7F3FE0328FAD01E20FEF786FA8D
:101F5000284601210122FEF765FB204610210022C0
:101F6000FEF760FB0120FEF779FA40F2A0057D2024
:101F7000C2F200058DF806000DF106012846012287
:101F80004FF47A73FFF784F82846FEF7CFFE032854
:101F9000FAD040F2A0050420C2F200058DF8070037
:101FA0000DF10701284601224FF47A73FFF770F80C
:101FB0002846FEF7BBFE0328FAD00120FEF74EFAB2
:101FC000204610210122FEF72DFB02B070BD00005B
:101FD00082B00024C4F20204FEF73EFBFFF748FE85
:101FE000FFF704FDFFF756FDFFF77EFDFFF744FF07
:101FF00040F2F800C2F20000FFF7EEFB40F270057D
:10200000C2F2000540F2A00704F58066C2F20007A4
:1020100005F10E0A0DF1070B0DF103080DF106098C
:10202000FEF706FB6968401A0A28F9D330460121F9
:102030000122FEF7F7FA204610210022FEF7F2FAFD
:102040000120FEF70BFAC1208DF8050038460DF18E
:10205000050101224FF47A73FFF71AF83846FEF7AC
:1020600065FE0328FAD03846294602224FF47A73D7
:10207000FEF70EFF3846FEF759FE0428FAD001207D
:10208000FEF7ECF9204610210122FEF7CBFA687822
:1020900042F2782100F00300C0F6000101EB80005D
:1020A00090ED008A304601210122FEF7BBFA20465E
:1020B00010210022FEF7B6FA0120FEF7CFF9922098
:1020C0008DF80400384601A901224FF47A73FEF717
:1020D000DFFF00BF3846FEF729FE0328FAD0384656
:1020E000514607224FF47A73FEF7D2FE3846FEF7C8
:1020F0001DFE0428FAD00120FEF7B0F92046102179
:102100000122FEF78FFAB5F90F00B5F91310B5F9F2
:10211000112000EE101A01EE102A02EE100AB8EE9D
:10212000C00AB8EEC11AB8EEC22A28EE000A28EE9C
:10213000011A28EE022A20461021012285ED062AE6
:1021400085ED071A85ED080AFEF76CFA3046012185
:102150000022FEF767FA8F208DF8070038465946AF
:1021600001224FF47A73FEF793FF00BF3846FEF763
:10217000DDFD0328FAD03846414601224FF47A7338
:10218000FEF786FE3846FEF7D1FD0428FAD0304629
:1021900001210122FEF746FA9DF8030042F2882150
:1021A00000F00300C0F6000101EB800090ED008A12
:1021B000204610210122FEF735FA30460121002287
:1021C000FEF730FA82208DF8060038464946012293
:1021D0004FF47A73FEF75CFF3846FEF7A7FD03283D
:1021E000FAD005F10801384606224FF47A73FEF75B
:1021F0004FFE00BF3846FEF799FD0428FAD030465E
:1022000001210122FEF70EFAB5F90800B5F90A100E
:10221000B5F90C2000EE100A01EE101A02EE102A99
:10222000B8EEC00AB8EEC11AB8EEC22A28EE000A0B
:1022300028EE011A28EE022A85ED090A85ED0A1A10
:1022400085ED0B2AFEF7F4F96860E9E6F1EE100A75
:102250004FF6FF71C0F2C03120EA010040F040703B
:10226000E1EE100A704700000000000000000102CB
:102270000304060708090000A4706B3AA470EB3A47
:10228000A4706B3BA470EB3B00007A3D0000FA3C6D
:1022900000007A3C0000FA3BB82200080000002051
:1022A00010000000EC010008C82200081000002007
:1022B000380700000C0200080100000010000000B8
:0822C0000024F40000000000FE
:040000050800018965
:00000001FF
